:020000040800F2
:1000000028040020610E0008290B00082B0B0008B3
:100010002D0B00082F0B0008310B0008000000001A
:10002000000000000000000000000000330B00088A
:10003000350B000800000000370B0008390B0008E2
:100040007D0E0008810E0008850E0008890E00084C
:100050008D0E0008910E0008950E0008990E0008FC
:100060009D0E0008A10E0008A50E0008A90E0008AC
:10007000AD0E0008B10E0008B50E0008B90E00085C
:10008000BD0E0008C10E0008C50E000800000000EB
:10009000000000000000000000000000C90E000881
:1000A000CD0E00083D0B0008D10E0008D50E00084B
:1000B000DF0B0008570C0008D90E0008DD0E000801
:1000C000E10E0008E50E0008E90E0008ED0E00083C
:1000D000F10E0008F50E0008F90E0008FD0E0008EC
:1000E000010F0008050F0008090F000800000000BC
:1000F0000000000000000000000000000000000000
:1001000000000000000000000000000000000000EF
:1001100000000000000000000D0F0008110F000893
:10012000012200F01F01BC4B8A40400943F8202007
:1001300070470901020006D5B84A00F00F001044CC
:1001400000F8041C7047B64B1954704700F00700C4
:1001500010B5C0F10703052B28BF0423041D072C8D
:1001600034BF0020C01E012404FA03F35B1E1940B3
:10017000814004FA00F0401E1040084310BDA94918
:1001800081B00A6802430A6009680840009000983C
:1001900001B0704718B585B000F06EF900F073F843
:1001A0006846102100F074F99F48A04C016841F0A6
:1001B00020010160026802F02002049204990268A2
:1001C00042F004020260036803F0040304930499FC
:1001D000026842F0080202600022006800F0080095
:1001E0000490FC210498204600F01DFAFC210091A7
:1001F00001220192002102910222039269462046C7
:1002000000F04AF94FF4E0400021009001910122F2
:1002100002926946864800F03FF900F065F800F068
:100220008CF800F0C7F800F019FB00F0A0FA0221EA
:10023000022000F0BFFA00BF8BA000F0F1FA7D4968
:100240007D4B0520088000227C491A8000207C4BD1
:10025000088005227B491A8008807B4B18807B48E8
:1002600000F008F84FF0804000F004F8784800F003
:1002700001F8FEE7C16841F00101C160026842F087
:1002800001020260704710B57248016821F0F80160
:1002900041F080010160026842F0010202600168E1
:1002A0008907FCD5426822F0F0024260416821F4DF
:1002B000E0614160416821F4605141604168890812
:1002C00089004160416811F00C0FFBD1624C20465F
:1002D00000F0F6FA6148016841F00401016020462F
:1002E000BDE8104000F0F8BA10B586B001A800F0E3
:1002F00058F84D485A49046844F4006404600022E8
:100300000068524C00F4006000900098086800F00B
:100310004DF801461920FFF70CFF1920FFF700FFE9
:1003200063200021ADF8040002914FF4487204915B
:100330008DF81410039201A958E000B585B000F0C3
:100340002FF80120FFF71BFF454800F02DF801466C
:100350001C20FFF7EEFE1C20FFF7E2FE6321ADF844
:10036000001000224FF448710291019203926946F5
:100370004FF0804000F0B8FA4FF08041086820F05C
:10038000800008608A68374802408A604A6822F024
:1003900070024A60886820F08000886005B000BD67
:1003A0006846142100F074B8006800220021C0F3F0
:1003B0000220CBE618B585B0FFF7F2FF0220FFF769
:1003C000DEFE2748224CFFF7EFFF01461D20FFF716
:1003D000B0FE1D20FFF7A4FE41F63F71ADF80010FE
:1003E000002264210291019203926946204600F0A6
:1003F0007BFA206820F080002060A1681948014045
:10040000A160616821F070016160A06820F0800047
:10041000A06006B010BD000000E100E018ED00E0B3
:1004200000E400E01C1002401810024000080140E7
:10043000000C0140140000201600002018000020CD
:100440001A0000201C0000201E000020002C01408B
:10045000000400400010024000127A0010E000E0AA
:100460000CED00E0F8BFFFFF53454D455354524F8C
:10047000564159410000000080B5032000F08FFA7A
:10048000002000F0D5FA00F0F3FA002002BD0000D1
:10049000002200F00FBB00002DE9F84302460020C7
:1004A0000025634BDFF88C9101270E68AF403E407A
:1004B000BE4240F0AC804C686CB3012C20D0022CC2
:1004C00023D0032C32D0112C1CD0122C20D0DFF8DA
:1004D00068E174451CBFDFF864E174451BD0DFF8A8
:1004E00060E174451CBFDFF85CE1744513D0DFF8B0
:1004F00058E174451CBFDFF854E174450BD016E099
:10050000C86814E0C868001D11E0C86808300EE033
:10051000C8680C300BE0886808B9042007E001289F
:1005200019BF082057610820176100E00020B6F5C8
:10053000807F03D294464FEA850E05E0A5F10804BA
:1005400002F1040C4FEA840E0F27DCF8008007FA52
:100550000EF428EA040400FA0EFE4EEA0404CCF875
:1005600000404C68E40052D5D9F80040DFF8E0E0E4
:1005700044F00104C9F800404FEA950CD9F8004056
:1005800004F0010400944FEA8508009C5EF82C40BA
:1005900008F00C0807FA08F724EA07072D4CA242D6
:1005A00008BF00240ED02C4CA24208BF012409D061
:1005B0002A4CA24208BF022404D0294CA2420CBFFC
:1005C0000324042404FA08F427434EF82C70F7435C
:1005D0004C68E4031C684CBF34433C401C604C68CE
:1005E000A4035C684CBF34433C405C604C68E4024C
:1005F0009C684CBF34433C409C604C68A40203D5CB
:10060000DF683E43DE6002E0DE683740DF606D1C7D
:100610000F2D7FF649AFBDE8F1838068084018BF11
:100620000120C0B2704702B909040161704700009F
:1006300000040140181002400000111000001210C8
:1006400000002110000022100000311000003210C4
:100650000800014000080140000C0140001001406A
:100660000014014001B400996A4A6B481368B3FB57
:10067000F0F04143009102E00098401E0090009885
:100680000028F9D101B0704710B5644C216841F0E1
:10069000080121600120FFF7E5FF216821F0080132
:1006A000216010BD02065D4904D50B6843F080034C
:1006B0000B6003E00A6822F080020A60420604D55B
:1006C0000B6843F040030B6003E00A6822F040022D
:1006D0000A60820604D50B6843F020030B6003E038
:1006E0000A6822F020020A60C00600D526E02AE04F
:1006F00002074A4904D50B6843F080030B6003E00E
:100700000A6822F080020A60420704D50B6843F0B1
:1007100040030B6003E00A6822F040020A6082078F
:1007200004D50B6843F020030B6003E00A6822F055
:1007300020020A60C00700D500E004E00A6842F029
:1007400010020A607047086820F0100008607047C7
:1007500010B50446FFF7A6FFFFF796FF2046FFF708
:10076000C7FFFFF791FFBDE8104005207AE780B58D
:1007700000F00CF8012003E080B500F007F802203B
:10078000FFF7E6FFBDE80240C8206BE72348016899
:1007900021F004010160704720490A6822F0040238
:1007A0003C280A6002D03E2802D07047102000E0AA
:1007B0001420CDE7194A1368401E23F004030428CF
:1007C000136013D8DFE800F00306090C0F0041F0B6
:1007D00080000AE041F0C00007E041F0900004E032
:1007E00041F0D00001E041F04000B1E770470B4913
:1007F0000A6822F004020A60AAE780B507490A687D
:1008000042F004020A60FFF7A3FFBDE802400120A6
:1008100028E700000C00002040420F000C080140B7
:1008200038B5054602E0FFF7E8FF6D1C2878A0B157
:100830000A2804D100210220FFF7BCFFF5E70D28AC
:1008400002D1FFF799FFF0E70928ECD104243E20FC
:10085000FFF7A2FF641EFAD1E7E731BD80B5302073
:10086000FFF776FF4FF4C870FFF7FCFE3020FFF76C
:100870006FFF4FF4C870FFF7F5FEFFF787FF2820E2
:10088000FFF710FFFFF700FF0520FFF7EBFEFFF774
:10089000FBFE0520FFF7E6FE2820FFF729FFFFF704
:1008A000F3FE0520FFF7DEFE0C20FFF7A0FF062079
:1008B000FFF79DFFFFF75BFFBDE801405CE700002D
:1008C0004FF47A720649B0FBF2F0401E48600023F4
:1008D0008B6005200860704702490860704700007F
:1008E00010E000E00C000020F0B5DFF880E00368C5
:1008F000DFF88C40DFF88450DFF87C60DFF874703C
:10090000DFF86CC0704518BFB0F1804F03D0604570
:1009100018BFB84209D14A6823F0700313437045E9
:100920001CBFB0F1804F604507D0B84218BFB0423D
:1009300003D0A84218BFA04203D1CA6823F4407371
:100940001343036070458A68C26218BFB0420A88C8
:10095000826203D0A84218BFA04201D1097C016382
:10096000416941F0010141610120F0BD002C0140CD
:1009700000040040000800400040014000440140E5
:10098000004801400901020006D5244A00F00F008A
:10099000104400F8041C7047214B19547047214B38
:1009A00019684FF6FF020002114000F4E0600843AE
:1009B0001D4908431860704738B51A4B1C68C4F3CA
:1009C0000223C3F10704052C28BF04241D1D072D95
:1009D00034BF0023DB1E012505FA04F4641E214008
:1009E000994005FA03F35B1E1A401143BDE83440F9
:1009F000C8E710B5401EB0F1807F01D3012010BDC3
:100A00000A4C60600F214FF0FF30FFF7BBFF002161
:100A1000A16007202060002010BD000018ED00E05C
:100A200000E400E00CED00E00000FA0510E000E05A
:100A300038B50D4D0D4B2A7804464FF47A7118687D
:100A4000B1FBF2F2B0FBF2F0FFF7D3FF50B9102C7C
:100A500008D2002221464FF0FF30FFF7ADFFAC6017
:100A6000002032BD012032BD000000200C0000201B
:100A70000E4881B0016841F001010160026802F096
:100A8000010200920099426842F080524260406840
:100A900000F08050009000980548016821F0E06166
:100AA00041F00071016001B0704700BF18100240B2
:100AB0000400014000B500BF13009646944610396B
:100AC00028BFA0E80C50FAD85FEA417C28BF0CC0D0
:100AD00048BF40F8042BC90728BF20F8022B48BFA5
:100AE00000F8012B00BD000009281CD8DFE800F049
:100AF00005080A0C0E101214161800BF87A010E08B
:100B000087A00EE087A00CE087A00AE087A008E09D
:100B100087A006E087A004E087A002E087A000E0AD
:100B200087A0FFF77DBE70477047FEE7FEE7FEE750
:100B3000FEE770477047704700F006B970B56A4B22
:100B4000DFF8A8417FA56A4E6FF001021A6000210C
:100B50000120FFF72FFE20880A2190FBF1F0FFF71C
:100B6000C3FF20880A210A2400F034F800F02AF894
:100B700000F02BF830885F4E00F02BF800F022F8E0
:100B80005D480088FFF7B0FF09210120FFF712FE42
:100B900000F01BF83088594E00F01BF800F012F8F6
:100BA00000F013F830880A2190FBF1F104FB1104E6
:100BB0002046FFF799FF00F005F851480088BDE88E
:100BC000704091E72846FFF72BBE308890FBF4F089
:100BD0008AE70A2190FBF1F104FB110084E7F8B5E4
:100BE0004849494F494C4A4D6FF0010008604FF4A5
:100BF00080513846FFF711FD20B92888012829D1F6
:100C000000210AE04FF400513846FFF706FD414E3F
:100C100028B9308801281DD101212170F1BD4FF480
:100C200080413846FFF7F9FCA0B902202F4A207016
:100C300005212F48118000232F4A038000212D48D1
:100C4000118005232D4A038011802D480180012148
:100C500029803180F1BD70B52F482C4A6FF0010119
:100C600001600160107810B1012815D070BD284BCB
:100C70001988012936D1204C208800282FD11B4EFD
:100C80001B4D3088002804BF2988002919D12088ED
:100C9000B8B91980012312E01E4B1888012821D110
:100CA000174C2088D8B9134E144D3088002804BF43
:100CB0002988002905D1208818B9198000231370CC
:100CC00070BD09222280288828B93B2129803088DC
:100CD000421E328070BD2988481E288070BD22883F
:100CE000511E218070BD0000102C01401400002016
:100CF000160000201A000020180000201C00002010
:100D00001E00002010000040000C014020000020C8
:100D100010000020120000201004004030000000ED
:100D200031000000320000003300000034000000F9
:100D300035000000360000003700000038000000D9
:100D4000390000003A00000002494A680878821819
:100D50004A6070470000002010B50F4A0F49106824
:100D600040F00100106053680D480B405360146858
:100D700004401460116821F4802111604FF41F01B8
:100D8000506820F4FE00506091600020D0624FF067
:100D90000061044A116010BD001002400000FFF81D
:100DA000FFFFF6FE08ED00E030B5016884684218E8
:100DB000416802EB5103C9070BD54C4409E012F915
:100DC000011B12F8015B002904F8015B05D5491CE1
:100DD000F9D19A42F3D10C3030BD491EF1D5F8E774
:100DE00010B5074979441831064C7C44163404E0A8
:100DF0000A68081D114488470146A142F8D110BD78
:100E00000800000014000000A1FFFFFF080100001F
:100E1000260000000000002000F00DF8002801D09E
:100E2000FFF7DEFFAFF300800020AFF30080FFF795
:100E3000B1F900F002F80120704700F001B800009D
:100E40000746384600F002F8FBE7000080B5AFF334
:100E50000080024A11001820ABBEFBE7260002000A
:100E60000148804701480047590D0008710E0008ED
:100E7000AFF30080AFF30080FFF7CEFFFFF7FEBFB8
:100E8000FFF7FEBFFFF7FEBFFFF7FEBFFFF7FEBF96
:100E9000FFF7FEBFFFF7FEBFFFF7FEBFFFF7FEBF86
:100EA000FFF7FEBFFFF7FEBFFFF7FEBFFFF7FEBF76
:100EB000FFF7FEBFFFF7FEBFFFF7FEBFFFF7FEBF66
:100EC000FFF7FEBFFFF7FEBFFFF7FEBFFFF7FEBF56
:100ED000FFF7FEBFFFF7FEBFFFF7FEBFFFF7FEBF46
:100EE000FFF7FEBFFFF7FEBFFFF7FEBFFFF7FEBF36
:100EF000FFF7FEBFFFF7FEBFFFF7FEBFFFF7FEBF26
:100F0000FFF7FEBFFFF7FEBFFFF7FEBFFFF7FEBF15
:100F1000FFF7FEBF0001F9000010FC0005366E016E
:070F2000010001F3000002D3
:0400000508000E7170
:00000001FF
